{
  "contractName": "DAO",
  "abi": [
    {
      "inputs": [],
      "stateMutability": "nonpayable",
      "type": "constructor"
    },
    {
      "anonymous": false,
      "inputs": [
        {
          "indexed": true,
          "internalType": "address",
          "name": "owner",
          "type": "address"
        },
        {
          "indexed": true,
          "internalType": "address",
          "name": "spender",
          "type": "address"
        },
        {
          "indexed": false,
          "internalType": "uint256",
          "name": "value",
          "type": "uint256"
        }
      ],
      "name": "Approval",
      "type": "event"
    },
    {
      "anonymous": false,
      "inputs": [
        {
          "indexed": true,
          "internalType": "address",
          "name": "from",
          "type": "address"
        },
        {
          "indexed": true,
          "internalType": "address",
          "name": "to",
          "type": "address"
        },
        {
          "indexed": false,
          "internalType": "uint256",
          "name": "value",
          "type": "uint256"
        }
      ],
      "name": "Transfer",
      "type": "event"
    },
    {
      "inputs": [],
      "name": "DAOTOKEN",
      "outputs": [
        {
          "internalType": "contract IERC20",
          "name": "",
          "type": "address"
        }
      ],
      "stateMutability": "view",
      "type": "function"
    },
    {
      "inputs": [
        {
          "internalType": "address",
          "name": "owner",
          "type": "address"
        },
        {
          "internalType": "address",
          "name": "spender",
          "type": "address"
        }
      ],
      "name": "allowance",
      "outputs": [
        {
          "internalType": "uint256",
          "name": "",
          "type": "uint256"
        }
      ],
      "stateMutability": "view",
      "type": "function"
    },
    {
      "inputs": [
        {
          "internalType": "address[]",
          "name": "_ministers",
          "type": "address[]"
        }
      ],
      "name": "appointMinister",
      "outputs": [],
      "stateMutability": "nonpayable",
      "type": "function"
    },
    {
      "inputs": [
        {
          "internalType": "address",
          "name": "spender",
          "type": "address"
        },
        {
          "internalType": "uint256",
          "name": "amount",
          "type": "uint256"
        }
      ],
      "name": "approve",
      "outputs": [
        {
          "internalType": "bool",
          "name": "",
          "type": "bool"
        }
      ],
      "stateMutability": "nonpayable",
      "type": "function"
    },
    {
      "inputs": [
        {
          "internalType": "address",
          "name": "account",
          "type": "address"
        }
      ],
      "name": "balanceOf",
      "outputs": [
        {
          "internalType": "uint256",
          "name": "",
          "type": "uint256"
        }
      ],
      "stateMutability": "view",
      "type": "function"
    },
    {
      "inputs": [],
      "name": "candidate",
      "outputs": [],
      "stateMutability": "nonpayable",
      "type": "function"
    },
    {
      "inputs": [],
      "name": "claim",
      "outputs": [],
      "stateMutability": "nonpayable",
      "type": "function"
    },
    {
      "inputs": [],
      "name": "decimals",
      "outputs": [
        {
          "internalType": "uint8",
          "name": "",
          "type": "uint8"
        }
      ],
      "stateMutability": "view",
      "type": "function"
    },
    {
      "inputs": [
        {
          "internalType": "address",
          "name": "spender",
          "type": "address"
        },
        {
          "internalType": "uint256",
          "name": "subtractedValue",
          "type": "uint256"
        }
      ],
      "name": "decreaseAllowance",
      "outputs": [
        {
          "internalType": "bool",
          "name": "",
          "type": "bool"
        }
      ],
      "stateMutability": "nonpayable",
      "type": "function"
    },
    {
      "inputs": [
        {
          "internalType": "uint8",
          "name": "voteTime",
          "type": "uint8"
        },
        {
          "internalType": "uint8",
          "name": "timeType",
          "type": "uint8"
        }
      ],
      "name": "election",
      "outputs": [],
      "stateMutability": "nonpayable",
      "type": "function"
    },
    {
      "inputs": [],
      "name": "electionResult",
      "outputs": [],
      "stateMutability": "nonpayable",
      "type": "function"
    },
    {
      "inputs": [],
      "name": "finishVoting",
      "outputs": [],
      "stateMutability": "nonpayable",
      "type": "function"
    },
    {
      "inputs": [
        {
          "internalType": "uint256",
          "name": "choice",
          "type": "uint256"
        }
      ],
      "name": "getVote",
      "outputs": [],
      "stateMutability": "nonpayable",
      "type": "function"
    },
    {
      "inputs": [],
      "name": "getWinner",
      "outputs": [
        {
          "internalType": "uint256",
          "name": "winner",
          "type": "uint256"
        },
        {
          "internalType": "uint256",
          "name": "votes",
          "type": "uint256"
        }
      ],
      "stateMutability": "view",
      "type": "function"
    },
    {
      "inputs": [
        {
          "internalType": "address",
          "name": "spender",
          "type": "address"
        },
        {
          "internalType": "uint256",
          "name": "addedValue",
          "type": "uint256"
        }
      ],
      "name": "increaseAllowance",
      "outputs": [
        {
          "internalType": "bool",
          "name": "",
          "type": "bool"
        }
      ],
      "stateMutability": "nonpayable",
      "type": "function"
    },
    {
      "inputs": [
        {
          "internalType": "address",
          "name": "staker",
          "type": "address"
        }
      ],
      "name": "isStaked",
      "outputs": [
        {
          "internalType": "bool",
          "name": "result",
          "type": "bool"
        }
      ],
      "stateMutability": "view",
      "type": "function"
    },
    {
      "inputs": [],
      "name": "judgeCandidate",
      "outputs": [],
      "stateMutability": "nonpayable",
      "type": "function"
    },
    {
      "inputs": [
        {
          "internalType": "uint8",
          "name": "voteTime",
          "type": "uint8"
        },
        {
          "internalType": "uint8",
          "name": "timeType",
          "type": "uint8"
        }
      ],
      "name": "judgeElection",
      "outputs": [],
      "stateMutability": "nonpayable",
      "type": "function"
    },
    {
      "inputs": [],
      "name": "judgeElectionResult",
      "outputs": [],
      "stateMutability": "nonpayable",
      "type": "function"
    },
    {
      "inputs": [],
      "name": "name",
      "outputs": [
        {
          "internalType": "string",
          "name": "",
          "type": "string"
        }
      ],
      "stateMutability": "view",
      "type": "function"
    },
    {
      "inputs": [],
      "name": "pauseTransactions",
      "outputs": [],
      "stateMutability": "nonpayable",
      "type": "function"
    },
    {
      "inputs": [],
      "name": "stake",
      "outputs": [],
      "stateMutability": "nonpayable",
      "type": "function"
    },
    {
      "inputs": [
        {
          "internalType": "uint8",
          "name": "_time",
          "type": "uint8"
        },
        {
          "internalType": "uint8",
          "name": "_timeType",
          "type": "uint8"
        },
        {
          "internalType": "uint8",
          "name": "_choiceNumber",
          "type": "uint8"
        }
      ],
      "name": "startParliamentaryVote",
      "outputs": [],
      "stateMutability": "nonpayable",
      "type": "function"
    },
    {
      "inputs": [
        {
          "internalType": "uint8",
          "name": "_time",
          "type": "uint8"
        },
        {
          "internalType": "uint8",
          "name": "_timeType",
          "type": "uint8"
        },
        {
          "internalType": "uint256",
          "name": "_choiceNumber",
          "type": "uint256"
        }
      ],
      "name": "startVote",
      "outputs": [],
      "stateMutability": "nonpayable",
      "type": "function"
    },
    {
      "inputs": [],
      "name": "symbol",
      "outputs": [
        {
          "internalType": "string",
          "name": "",
          "type": "string"
        }
      ],
      "stateMutability": "view",
      "type": "function"
    },
    {
      "inputs": [],
      "name": "totalSupply",
      "outputs": [
        {
          "internalType": "uint256",
          "name": "",
          "type": "uint256"
        }
      ],
      "stateMutability": "view",
      "type": "function"
    },
    {
      "inputs": [
        {
          "internalType": "address",
          "name": "to",
          "type": "address"
        },
        {
          "internalType": "uint256",
          "name": "amount",
          "type": "uint256"
        }
      ],
      "name": "transfer",
      "outputs": [
        {
          "internalType": "bool",
          "name": "",
          "type": "bool"
        }
      ],
      "stateMutability": "nonpayable",
      "type": "function"
    },
    {
      "inputs": [
        {
          "internalType": "address",
          "name": "from",
          "type": "address"
        },
        {
          "internalType": "address",
          "name": "to",
          "type": "address"
        },
        {
          "internalType": "uint256",
          "name": "amount",
          "type": "uint256"
        }
      ],
      "name": "transferFrom",
      "outputs": [
        {
          "internalType": "bool",
          "name": "",
          "type": "bool"
        }
      ],
      "stateMutability": "nonpayable",
      "type": "function"
    },
    {
      "inputs": [
        {
          "internalType": "uint256",
          "name": "amount",
          "type": "uint256"
        }
      ],
      "name": "useFunds",
      "outputs": [],
      "stateMutability": "nonpayable",
      "type": "function"
    },
    {
      "inputs": [
        {
          "internalType": "address",
          "name": "recipient_",
          "type": "address"
        },
        {
          "internalType": "uint256",
          "name": "amount_",
          "type": "uint256"
        }
      ],
      "name": "mint",
      "outputs": [],
      "stateMutability": "nonpayable",
      "type": "function"
    }
  ],
  "bytecode": "0x60a0604052603c600760196101000a81548160ff021916908360ff160217905550610e106007601a6101000a81548161ffff021916908361ffff160217905550620151806007601c6101000a81548163ffffffff021916908363ffffffff16021790555062278d00600860006101000a81548163ffffffff021916908363ffffffff1602179055506301e13380600860046101000a81548163ffffffff021916908363ffffffff1602179055506001600c55670de0b6b3a7640000600d553073ffffffffffffffffffffffffffffffffffffffff1660809073ffffffffffffffffffffffffffffffffffffffff16815250348015620000fd57600080fd5b506040518060400160405280600881526020017f44414f544f4b454e0000000000000000000000000000000000000000000000008152506040518060400160405280600381526020017f44414f00000000000000000000000000000000000000000000000000000000008152506a01a784379d99db4200000082600590805190602001906200018e92919062000466565b508160069080519060200190620001a792919062000466565b50620001b86200045e60201b60201c565b600760006101000a81548173ffffffffffffffffffffffffffffffffffffffff021916908373ffffffffffffffffffffffffffffffffffffffff1602179055506000600260006101000a81548160ff021916908360ff1602179055508060048190555060006003819055505050506001600760146101000a81548160ff021916908360ff1602179055506000600760156101000a81548160ff021916908360ff1602179055506000600b819055506011620002786200045e60201b60201c565b9080600181540180825580915050600190039060005260206000200160009091909190916101000a81548173ffffffffffffffffffffffffffffffffffffffff021916908373ffffffffffffffffffffffffffffffffffffffff160217905550600860009054906101000a900463ffffffff1663ffffffff1642620002fe91906200054f565b600a819055506000600760166101000a81548160ff021916908360ff1602179055506000600760176101000a81548160ff021916908360ff1602179055506200034c6200045e60201b60201c565b601060006101000a81548173ffffffffffffffffffffffffffffffffffffffff021916908373ffffffffffffffffffffffffffffffffffffffff160217905550600860009054906101000a900463ffffffff1663ffffffff1642620003b291906200054f565b600981905550620003c86200045e60201b60201c565b600760006101000a81548173ffffffffffffffffffffffffffffffffffffffff021916908373ffffffffffffffffffffffffffffffffffffffff160217905550620004186200045e60201b60201c565b600e60006101000a81548173ffffffffffffffffffffffffffffffffffffffff021916908373ffffffffffffffffffffffffffffffffffffffff16021790555062000610565b600033905090565b8280546200047490620005db565b90600052602060002090601f016020900481019282620004985760008555620004e4565b82601f10620004b357805160ff1916838001178555620004e4565b82800160010185558215620004e4579182015b82811115620004e3578251825591602001919060010190620004c6565b5b509050620004f39190620004f7565b5090565b5b8082111562000512576000816000905550600101620004f8565b5090565b6000819050919050565b7f4e487b7100000000000000000000000000000000000000000000000000000000600052601160045260246000fd5b60006200055c8262000516565b9150620005698362000516565b9250827fffffffffffffffffffffffffffffffffffffffffffffffffffffffffffffffff03821115620005a157620005a062000520565b5b828201905092915050565b7f4e487b7100000000000000000000000000000000000000000000000000000000600052602260045260246000fd5b60006002820490506001821680620005f457607f821691505b6020821081036200060a5762000609620005ac565b5b50919050565b6080516147706200066b600039600081816106d7015281816107800152818161087f01528181610af301528181610ff1015281816111180152818161126d01528181612059015281816121d601526129e601526147706000f3fe608060405234801561001057600080fd5b50600436106101da5760003560e01c806370a0823111610104578063b0b762ce116100a2578063ebad754c11610071578063ebad754c146104f6578063edee42f114610512578063f39807b01461051c578063f90943031461053a576101da565b8063b0b762ce14610496578063dd62ed3e146104b2578063e22b5d19146104e2578063ea055733146104ec576101da565b806395d89b41116100de57806395d89b41146103fc578063a457c2d71461041a578063a9059cbb1461044a578063ac91c29f1461047a576101da565b806370a08231146103915780637bcb32e0146103c15780638e7ea5b2146103dd576101da565b80633a4b66f11161017c5780635a55c1f01161014b5780635a55c1f0146103315780636177fd181461034d57806365b439e61461037d5780636c8381f814610387576101da565b80633a4b66f1146102e557806340c10f19146102ef57806349b0b3921461030b5780634e71d92d14610327576101da565b806318160ddd116101b857806318160ddd1461024957806323b872dd14610267578063313ce5671461029757806339509351146102b5576101da565b806306fdde03146101df578063095ea7b3146101fd578063095ff8e11461022d575b600080fd5b6101e7610544565b6040516101f49190612f2d565b60405180910390f35b61021760048036038101906102129190612fed565b6105d6565b6040516102249190613048565b60405180910390f35b61024760048036038101906102429190613063565b6105f9565b005b610251610926565b60405161025e919061309f565b60405180910390f35b610281600480360381019061027c91906130ba565b610930565b60405161028e9190613048565b60405180910390f35b61029f6109b4565b6040516102ac9190613129565b60405180910390f35b6102cf60048036038101906102ca9190612fed565b6109bd565b6040516102dc9190613048565b60405180910390f35b6102ed6109f4565b005b61030960048036038101906103049190612fed565b610c04565b005b61032560048036038101906103209190613170565b610ca9565b005b61032f610e8d565b005b61034b60048036038101906103469190613063565b6111dc565b005b610367600480360381019061036291906131c3565b6114a2565b6040516103749190613048565b60405180910390f35b6103856114ed565b005b61038f6115d1565b005b6103ab60048036038101906103a691906131c3565b611763565b6040516103b8919061309f565b60405180910390f35b6103db60048036038101906103d691906131f0565b6117ab565b005b6103e5611835565b6040516103f3929190613230565b60405180910390f35b6104046118fc565b6040516104119190612f2d565b60405180910390f35b610434600480360381019061042f9190612fed565b61198e565b6040516104419190613048565b60405180910390f35b610464600480360381019061045f9190612fed565b611a05565b6040516104719190613048565b60405180910390f35b610494600480360381019061048f91906131f0565b611a7d565b005b6104b060048036038101906104ab91906132be565b611baa565b005b6104cc60048036038101906104c7919061330b565b611d76565b6040516104d9919061309f565b60405180910390f35b6104ea611dfd565b005b6104f4611f66565b005b610510600480360381019061050b919061334b565b612057565b005b61051a612119565b005b6105246121d4565b60405161053191906133fd565b60405180910390f35b6105426121f8565b005b60606005805461055390613447565b80601f016020809104026020016040519081016040528092919081815260200182805461057f90613447565b80156105cc5780601f106105a1576101008083540402835291602001916105cc565b820191906000526020600020905b8154815290600101906020018083116105af57829003601f168201915b5050505050905090565b6000806105e1612297565b90506105ee81858561229f565b600191505092915050565b601060009054906101000a900473ffffffffffffffffffffffffffffffffffffffff1673ffffffffffffffffffffffffffffffffffffffff1661063a612297565b73ffffffffffffffffffffffffffffffffffffffff1614610690576040517f08c379a0000000000000000000000000000000000000000000000000000000008152600401610687906134c4565b60405180910390fd5b600a544211156106d5576040517f08c379a00000000000000000000000000000000000000000000000000000000081526004016106cc90613530565b60405180910390fd5b7f000000000000000000000000000000000000000000000000000000000000000073ffffffffffffffffffffffffffffffffffffffff166370a08231306040518263ffffffff1660e01b815260040161072e919061355f565b602060405180830381865afa15801561074b573d6000803e3d6000fd5b505050506040513d601f19601f8201168201806040525081019061076f919061358f565b81111561077b57600080fd5b600b547f000000000000000000000000000000000000000000000000000000000000000073ffffffffffffffffffffffffffffffffffffffff166370a08231306040518263ffffffff1660e01b81526004016107d7919061355f565b602060405180830381865afa1580156107f4573d6000803e3d6000fd5b505050506040513d601f19601f82011682018060405250810190610818919061358f565b61082291906135eb565b811115610864576040517f08c379a000000000000000000000000000000000000000000000000000000000815260040161085b9061366b565b60405180910390fd5b80600b6000828254610876919061368b565b925050819055507f000000000000000000000000000000000000000000000000000000000000000073ffffffffffffffffffffffffffffffffffffffff1663a9059cbb6108c1612297565b836040518363ffffffff1660e01b81526004016108df9291906136e1565b6020604051808303816000875af11580156108fe573d6000803e3d6000fd5b505050506040513d601f19601f820116820180604052508101906109229190613736565b5050565b6000600354905090565b600080600260009054906101000a900460ff1660ff1614610986576040517f08c379a000000000000000000000000000000000000000000000000000000000815260040161097d906137af565b60405180910390fd5b6000610990612297565b905061099d858285612468565b6109a88585856124f4565b60019150509392505050565b60006012905090565b6000806109c8612297565b90506109e98185856109da8589611d76565b6109e4919061368b565b61229f565b600191505092915050565b600260ff16600760149054906101000a900460ff1660ff1603610a4c576040517f08c379a0000000000000000000000000000000000000000000000000000000008152600401610a439061381b565b60405180910390fd5b6002600760146101000a81548160ff021916908360ff160217905550600060176000610a76612297565b73ffffffffffffffffffffffffffffffffffffffff1673ffffffffffffffffffffffffffffffffffffffff1681526020019081526020016000205414610af1576040517f08c379a0000000000000000000000000000000000000000000000000000000008152600401610ae890613887565b60405180910390fd5b7f000000000000000000000000000000000000000000000000000000000000000073ffffffffffffffffffffffffffffffffffffffff166323b872dd610b35612297565b30600d546040518463ffffffff1660e01b8152600401610b57939291906138a7565b6020604051808303816000875af1158015610b76573d6000803e3d6000fd5b505050506040513d601f19601f82011682018060405250810190610b9a9190613736565b504260176000610ba8612297565b73ffffffffffffffffffffffffffffffffffffffff1673ffffffffffffffffffffffffffffffffffffffff168152602001908152602001600020819055506001600760146101000a81548160ff021916908360ff160217905550565b600e60009054906101000a900473ffffffffffffffffffffffffffffffffffffffff1673ffffffffffffffffffffffffffffffffffffffff16610c45612297565b73ffffffffffffffffffffffffffffffffffffffff1614610c9b576040517f08c379a0000000000000000000000000000000000000000000000000000000008152600401610c929061392a565b60405180910390fd5b610ca58282612773565b5050565b600060148054905011610cf1576040517f08c379a0000000000000000000000000000000000000000000000000000000008152600401610ce890613996565b60405180910390fd5b6000805b601480549050811015610d925760148181548110610d1657610d156139b6565b5b9060005260206000200160009054906101000a900473ffffffffffffffffffffffffffffffffffffffff1673ffffffffffffffffffffffffffffffffffffffff16610d5f612297565b73ffffffffffffffffffffffffffffffffffffffff1603610d7f57600191505b8080610d8a906139e5565b915050610cf5565b50601060009054906101000a900473ffffffffffffffffffffffffffffffffffffffff1673ffffffffffffffffffffffffffffffffffffffff16610dd4612297565b73ffffffffffffffffffffffffffffffffffffffff161480610df35750805b610e32576040517f08c379a0000000000000000000000000000000000000000000000000000000008152600401610e2990613a9f565b60405180910390fd5b600a54421115610e77576040517f08c379a0000000000000000000000000000000000000000000000000000000008152600401610e6e90613530565b60405180910390fd5b610e8784848460ff166000612936565b50505050565b600260ff16600760149054906101000a900460ff1660ff1603610ee5576040517f08c379a0000000000000000000000000000000000000000000000000000000008152600401610edc9061381b565b60405180910390fd5b6002600760146101000a81548160ff021916908360ff160217905550600060176000610f0f612297565b73ffffffffffffffffffffffffffffffffffffffff1673ffffffffffffffffffffffffffffffffffffffff1681526020019081526020016000205403610f8a576040517f08c379a0000000000000000000000000000000000000000000000000000000008152600401610f8190613b0b565b60405180910390fd5b6301e1338060176000610f9b612297565b73ffffffffffffffffffffffffffffffffffffffff1673ffffffffffffffffffffffffffffffffffffffff1681526020019081526020016000205442610fe191906135eb565b1015610fec57600080fd5b600d547f000000000000000000000000000000000000000000000000000000000000000073ffffffffffffffffffffffffffffffffffffffff166370a08231306040518263ffffffff1660e01b8152600401611048919061355f565b602060405180830381865afa158015611065573d6000803e3d6000fd5b505050506040513d601f19601f82011682018060405250810190611089919061358f565b10156110ca576040517f08c379a00000000000000000000000000000000000000000000000000000000081526004016110c19061366b565b60405180910390fd5b6000601760006110d8612297565b73ffffffffffffffffffffffffffffffffffffffff1673ffffffffffffffffffffffffffffffffffffffff168152602001908152602001600020819055507f000000000000000000000000000000000000000000000000000000000000000073ffffffffffffffffffffffffffffffffffffffff1663a9059cbb61115a612297565b600d546040518363ffffffff1660e01b815260040161117a9291906136e1565b6020604051808303816000875af1158015611199573d6000803e3d6000fd5b505050506040513d601f19601f820116820180604052508101906111bd9190613736565b506001600760146101000a81548160ff021916908360ff160217905550565b60088054906101000a900467ffffffffffffffff1667ffffffffffffffff16421015801561122a5750600860109054906101000a900467ffffffffffffffff1667ffffffffffffffff164211155b611269576040517f08c379a000000000000000000000000000000000000000000000000000000000815260040161126090613b77565b60405180910390fd5b60007f000000000000000000000000000000000000000000000000000000000000000073ffffffffffffffffffffffffffffffffffffffff166370a082316112af612297565b6040518263ffffffff1660e01b81526004016112cb919061355f565b602060405180830381865afa1580156112e8573d6000803e3d6000fd5b505050506040513d601f19601f8201168201806040525081019061130c919061358f565b101561134d576040517f08c379a000000000000000000000000000000000000000000000000000000000815260040161134490613be3565b60405180910390fd5b60008111801561135f5750600c548111155b61139e576040517f08c379a000000000000000000000000000000000000000000000000000000000815260040161139590613c4f565b60405180910390fd5b600160166000600860189054906101000a900467ffffffffffffffff1667ffffffffffffffff16815260200190815260200160002060000160006101000a81548160ff0219169083151502179055508060166000600860189054906101000a900467ffffffffffffffff1667ffffffffffffffff16815260200190815260200160002060010181905550600160156000838152602001908152602001600020600082825461144c919061368b565b925050819055506001600860188282829054906101000a900467ffffffffffffffff166114799190613c83565b92506101000a81548167ffffffffffffffff021916908367ffffffffffffffff16021790555050565b600080601760008473ffffffffffffffffffffffffffffffffffffffff1673ffffffffffffffffffffffffffffffffffffffff16815260200190815260200160002054119050919050565b6002600760189054906101000a900460ff1660ff1614611542576040517f08c379a000000000000000000000000000000000000000000000000000000000815260040161153990613d0d565b60405180910390fd5b600061154c611835565b50905060138181548110611563576115626139b6565b5b9060005260206000200160009054906101000a900473ffffffffffffffffffffffffffffffffffffffff16600760006101000a81548173ffffffffffffffffffffffffffffffffffffffff021916908373ffffffffffffffffffffffffffffffffffffffff16021790555050565b60005b6012805490508110156116a757601281815481106115f5576115f46139b6565b5b9060005260206000200160009054906101000a900473ffffffffffffffffffffffffffffffffffffffff1673ffffffffffffffffffffffffffffffffffffffff1661163e612297565b73ffffffffffffffffffffffffffffffffffffffff1603611694576040517f08c379a000000000000000000000000000000000000000000000000000000000815260040161168b90613d9f565b60405180910390fd5b808061169f906139e5565b9150506115d4565b506116b86116b3612297565b6114a2565b6116f7576040517f08c379a00000000000000000000000000000000000000000000000000000000081526004016116ee90613e0b565b60405180910390fd5b6011611701612297565b9080600181540180825580915050600190039060005260206000200160009091909190916101000a81548173ffffffffffffffffffffffffffffffffffffffff021916908373ffffffffffffffffffffffffffffffffffffffff160217905550565b60008060008373ffffffffffffffffffffffffffffffffffffffff1673ffffffffffffffffffffffffffffffffffffffff168152602001908152602001600020549050919050565b6000600860009054906101000a900463ffffffff1663ffffffff16600a546117d3919061368b565b905080421015611818576040517f08c379a000000000000000000000000000000000000000000000000000000000815260040161180f90613b77565b60405180910390fd5b6000601380549050905061182f8484836002612936565b50505050565b600080600860109054906101000a900467ffffffffffffffff1667ffffffffffffffff1642101561189b576040517f08c379a000000000000000000000000000000000000000000000000000000000815260040161189290613e77565b60405180910390fd5b600090506000600190505b600c5481116118f75781601560008381526020019081526020016000205411156118e457601560008281526020019081526020016000205491508092505b80806118ef906139e5565b9150506118a6565b509091565b60606006805461190b90613447565b80601f016020809104026020016040519081016040528092919081815260200182805461193790613447565b80156119845780601f1061195957610100808354040283529160200191611984565b820191906000526020600020905b81548152906001019060200180831161196757829003601f168201915b5050505050905090565b600080611999612297565b905060006119a78286611d76565b9050838110156119ec576040517f08c379a00000000000000000000000000000000000000000000000000000000081526004016119e390613f09565b60405180910390fd5b6119f9828686840361229f565b60019250505092915050565b600080600260009054906101000a900460ff1660ff1614611a5b576040517f08c379a0000000000000000000000000000000000000000000000000000000008152600401611a52906137af565b60405180910390fd5b6000611a65612297565b9050611a728185856124f4565b600191505092915050565b6000600860009054906101000a900463ffffffff1663ffffffff16600a54611aa5919061368b565b90508042101580611ac857506000600760169054906101000a900460ff1660ff16145b80611b275750600760009054906101000a900473ffffffffffffffffffffffffffffffffffffffff1673ffffffffffffffffffffffffffffffffffffffff16611b0f612297565b73ffffffffffffffffffffffffffffffffffffffff16145b611b66576040517f08c379a0000000000000000000000000000000000000000000000000000000008152600401611b5d90613b77565b60405180910390fd5b42600a541015611b8d576001600760166101000a81548160ff021916908360ff1602179055505b60006011805490509050611ba48484836001612936565b50505050565b601060009054906101000a900473ffffffffffffffffffffffffffffffffffffffff1673ffffffffffffffffffffffffffffffffffffffff16611beb612297565b73ffffffffffffffffffffffffffffffffffffffff1614611c41576040517f08c379a0000000000000000000000000000000000000000000000000000000008152600401611c38906134c4565b60405180910390fd5b600a54421115611c86576040517f08c379a0000000000000000000000000000000000000000000000000000000008152600401611c7d90613530565b60405180910390fd5b60048282905014611ccc576040517f08c379a0000000000000000000000000000000000000000000000000000000008152600401611cc390613f75565b60405180910390fd5b60005b82829050811015611d7157828282818110611ced57611cec6139b6565b5b9050602002016020810190611d0291906131c3565b60148281548110611d1657611d156139b6565b5b9060005260206000200160006101000a81548173ffffffffffffffffffffffffffffffffffffffff021916908373ffffffffffffffffffffffffffffffffffffffff1602179055508080611d69906139e5565b915050611ccf565b505050565b6000600160008473ffffffffffffffffffffffffffffffffffffffff1673ffffffffffffffffffffffffffffffffffffffff16815260200190815260200160002060008373ffffffffffffffffffffffffffffffffffffffff1673ffffffffffffffffffffffffffffffffffffffff16815260200190815260200160002054905092915050565b6001600760189054906101000a900460ff1660ff1614611e52576040517f08c379a0000000000000000000000000000000000000000000000000000000008152600401611e4990613d0d565b60405180910390fd5b6000611e5c611835565b50905060118181548110611e7357611e726139b6565b5b9060005260206000200160009054906101000a900473ffffffffffffffffffffffffffffffffffffffff16601060006101000a81548173ffffffffffffffffffffffffffffffffffffffff021916908373ffffffffffffffffffffffffffffffffffffffff1602179055506012601060009054906101000a900473ffffffffffffffffffffffffffffffffffffffff169080600181540180825580915050600190039060005260206000200160009091909190916101000a81548173ffffffffffffffffffffffffffffffffffffffff021916908373ffffffffffffffffffffffffffffffffffffffff16021790555050565b600760009054906101000a900473ffffffffffffffffffffffffffffffffffffffff1673ffffffffffffffffffffffffffffffffffffffff16611fa7612297565b73ffffffffffffffffffffffffffffffffffffffff1614611ffd576040517f08c379a0000000000000000000000000000000000000000000000000000000008152600401611ff490614007565b60405180910390fd5b6000600260009054906101000a900460ff1660ff1603612038576001600260006101000a81548160ff021916908360ff160217905550612055565b6000600260006101000a81548160ff021916908360ff1602179055505b565b7f000000000000000000000000000000000000000000000000000000000000000073ffffffffffffffffffffffffffffffffffffffff166323b872dd61209b612297565b3067016345785d8a00006040518463ffffffff1660e01b81526004016120c393929190614062565b6020604051808303816000875af11580156120e2573d6000803e3d6000fd5b505050506040513d601f19601f820116820180604052508101906121069190613736565b506121148383836000612936565b505050565b612129612124612297565b6114a2565b612168576040517f08c379a000000000000000000000000000000000000000000000000000000000815260040161215f90613e0b565b60405180910390fd5b6013612172612297565b9080600181540180825580915050600190039060005260206000200160009091909190916101000a81548173ffffffffffffffffffffffffffffffffffffffff021916908373ffffffffffffffffffffffffffffffffffffffff160217905550565b7f000000000000000000000000000000000000000000000000000000000000000081565b600860109054906101000a900467ffffffffffffffff1667ffffffffffffffff16421015801561223a57506000600760159054906101000a900460ff1660ff16145b612279576040517f08c379a0000000000000000000000000000000000000000000000000000000008152600401612270906140e5565b60405180910390fd5b6000600760156101000a81548160ff021916908360ff160217905550565b600033905090565b600073ffffffffffffffffffffffffffffffffffffffff168373ffffffffffffffffffffffffffffffffffffffff160361230e576040517f08c379a000000000000000000000000000000000000000000000000000000000815260040161230590614177565b60405180910390fd5b600073ffffffffffffffffffffffffffffffffffffffff168273ffffffffffffffffffffffffffffffffffffffff160361237d576040517f08c379a000000000000000000000000000000000000000000000000000000000815260040161237490614209565b60405180910390fd5b80600160008573ffffffffffffffffffffffffffffffffffffffff1673ffffffffffffffffffffffffffffffffffffffff16815260200190815260200160002060008473ffffffffffffffffffffffffffffffffffffffff1673ffffffffffffffffffffffffffffffffffffffff168152602001908152602001600020819055508173ffffffffffffffffffffffffffffffffffffffff168373ffffffffffffffffffffffffffffffffffffffff167f8c5be1e5ebec7d5bd14f71427d1e84f3dd0314c0f7b2291e5b200ac8c7c3b9258360405161245b919061309f565b60405180910390a3505050565b60006124748484611d76565b90507fffffffffffffffffffffffffffffffffffffffffffffffffffffffffffffffff81146124ee57818110156124e0576040517f08c379a00000000000000000000000000000000000000000000000000000000081526004016124d790614275565b60405180910390fd5b6124ed848484840361229f565b5b50505050565b600073ffffffffffffffffffffffffffffffffffffffff168373ffffffffffffffffffffffffffffffffffffffff1603612563576040517f08c379a000000000000000000000000000000000000000000000000000000000815260040161255a90614307565b60405180910390fd5b600073ffffffffffffffffffffffffffffffffffffffff168273ffffffffffffffffffffffffffffffffffffffff16036125d2576040517f08c379a00000000000000000000000000000000000000000000000000000000081526004016125c990614399565b60405180910390fd5b6125dd838383612e8a565b60008060008573ffffffffffffffffffffffffffffffffffffffff1673ffffffffffffffffffffffffffffffffffffffff16815260200190815260200160002054905081811015612663576040517f08c379a000000000000000000000000000000000000000000000000000000000815260040161265a9061442b565b60405180910390fd5b8181036000808673ffffffffffffffffffffffffffffffffffffffff1673ffffffffffffffffffffffffffffffffffffffff16815260200190815260200160002081905550816000808573ffffffffffffffffffffffffffffffffffffffff1673ffffffffffffffffffffffffffffffffffffffff16815260200190815260200160002060008282546126f6919061368b565b925050819055508273ffffffffffffffffffffffffffffffffffffffff168473ffffffffffffffffffffffffffffffffffffffff167fddf252ad1be2c89b69c2b068fc378daa952ba7f163c4a11628f55a4df523b3ef8460405161275a919061309f565b60405180910390a361276d848484612e8f565b50505050565b8060045460035411158015612797575060035460045461279391906135eb565b8111155b6127d6576040517f08c379a00000000000000000000000000000000000000000000000000000000081526004016127cd90614497565b60405180910390fd5b600073ffffffffffffffffffffffffffffffffffffffff168373ffffffffffffffffffffffffffffffffffffffff1603612845576040517f08c379a000000000000000000000000000000000000000000000000000000000815260040161283c90614503565b60405180910390fd5b61285160008484612e8a565b8160036000828254612863919061368b565b92505081905550816000808573ffffffffffffffffffffffffffffffffffffffff1673ffffffffffffffffffffffffffffffffffffffff16815260200190815260200160002060008282546128b8919061368b565b925050819055508273ffffffffffffffffffffffffffffffffffffffff16600073ffffffffffffffffffffffffffffffffffffffff167fddf252ad1be2c89b69c2b068fc378daa952ba7f163c4a11628f55a4df523b3ef8460405161291d919061309f565b60405180910390a361293160008484612e8f565b505050565b6000600760159054906101000a900460ff1660ff161461298b576040517f08c379a00000000000000000000000000000000000000000000000000000000081526004016129829061456f565b60405180910390fd5b60048360ff16111580156129a3575060008360ff1610155b6129e2576040517f08c379a00000000000000000000000000000000000000000000000000000000081526004016129d9906145db565b60405180910390fd5b60007f000000000000000000000000000000000000000000000000000000000000000073ffffffffffffffffffffffffffffffffffffffff166370a08231612a28612297565b6040518263ffffffff1660e01b8152600401612a44919061355f565b602060405180830381865afa158015612a61573d6000803e3d6000fd5b505050506040513d601f19601f82011682018060405250810190612a85919061358f565b1015612ac6576040517f08c379a0000000000000000000000000000000000000000000000000000000008152600401612abd90614647565b60405180910390fd5b81600c81905550426008806101000a81548167ffffffffffffffff021916908367ffffffffffffffff16021790555060008360ff1603612b6a5760088054906101000a900467ffffffffffffffff1684600760199054906101000a900460ff16612b309190614667565b60ff16612b3d9190613c83565b600860106101000a81548167ffffffffffffffff021916908367ffffffffffffffff160217905550612d52565b60018360ff1603612be45760088054906101000a900467ffffffffffffffff168460ff166007601a9054906101000a900461ffff16612ba991906146b0565b61ffff16612bb79190613c83565b600860106101000a81548167ffffffffffffffff021916908367ffffffffffffffff160217905550612d51565b60028360ff1603612c625760088054906101000a900467ffffffffffffffff168460ff166007601c9054906101000a900463ffffffff16612c2591906146fc565b63ffffffff16612c359190613c83565b600860106101000a81548167ffffffffffffffff021916908367ffffffffffffffff160217905550612d50565b60038360ff1603612ce05760088054906101000a900467ffffffffffffffff168460ff16600860009054906101000a900463ffffffff16612ca391906146fc565b63ffffffff16612cb39190613c83565b600860106101000a81548167ffffffffffffffff021916908367ffffffffffffffff160217905550612d4f565b60088054906101000a900467ffffffffffffffff168460ff16600860049054906101000a900463ffffffff16612d1691906146fc565b63ffffffff16612d269190613c83565b600860106101000a81548167ffffffffffffffff021916908367ffffffffffffffff1602179055505b5b5b5b6000600860189054906101000a900467ffffffffffffffff1667ffffffffffffffff161115612e4d5760005b600860189054906101000a900467ffffffffffffffff1667ffffffffffffffff168111612dea5760166000828152602001908152602001600020600080820160006101000a81549060ff0219169055600182016000905550508080612de2906139e5565b915050612d7e565b5060005b600c548111612e215760156000828152602001908152602001600020600090558080612e19906139e5565b915050612dee565b506000600860186101000a81548167ffffffffffffffff021916908367ffffffffffffffff1602179055505b80600760186101000a81548160ff021916908360ff1602179055506001600760156101000a81548160ff021916908360ff16021790555050505050565b505050565b505050565b600081519050919050565b600082825260208201905092915050565b60005b83811015612ece578082015181840152602081019050612eb3565b83811115612edd576000848401525b50505050565b6000601f19601f8301169050919050565b6000612eff82612e94565b612f098185612e9f565b9350612f19818560208601612eb0565b612f2281612ee3565b840191505092915050565b60006020820190508181036000830152612f478184612ef4565b905092915050565b600080fd5b600080fd5b600073ffffffffffffffffffffffffffffffffffffffff82169050919050565b6000612f8482612f59565b9050919050565b612f9481612f79565b8114612f9f57600080fd5b50565b600081359050612fb181612f8b565b92915050565b6000819050919050565b612fca81612fb7565b8114612fd557600080fd5b50565b600081359050612fe781612fc1565b92915050565b6000806040838503121561300457613003612f4f565b5b600061301285828601612fa2565b925050602061302385828601612fd8565b9150509250929050565b60008115159050919050565b6130428161302d565b82525050565b600060208201905061305d6000830184613039565b92915050565b60006020828403121561307957613078612f4f565b5b600061308784828501612fd8565b91505092915050565b61309981612fb7565b82525050565b60006020820190506130b46000830184613090565b92915050565b6000806000606084860312156130d3576130d2612f4f565b5b60006130e186828701612fa2565b93505060206130f286828701612fa2565b925050604061310386828701612fd8565b9150509250925092565b600060ff82169050919050565b6131238161310d565b82525050565b600060208201905061313e600083018461311a565b92915050565b61314d8161310d565b811461315857600080fd5b50565b60008135905061316a81613144565b92915050565b60008060006060848603121561318957613188612f4f565b5b60006131978682870161315b565b93505060206131a88682870161315b565b92505060406131b98682870161315b565b9150509250925092565b6000602082840312156131d9576131d8612f4f565b5b60006131e784828501612fa2565b91505092915050565b6000806040838503121561320757613206612f4f565b5b60006132158582860161315b565b92505060206132268582860161315b565b9150509250929050565b60006040820190506132456000830185613090565b6132526020830184613090565b9392505050565b600080fd5b600080fd5b600080fd5b60008083601f84011261327e5761327d613259565b5b8235905067ffffffffffffffff81111561329b5761329a61325e565b5b6020830191508360208202830111156132b7576132b6613263565b5b9250929050565b600080602083850312156132d5576132d4612f4f565b5b600083013567ffffffffffffffff8111156132f3576132f2612f54565b5b6132ff85828601613268565b92509250509250929050565b6000806040838503121561332257613321612f4f565b5b600061333085828601612fa2565b925050602061334185828601612fa2565b9150509250929050565b60008060006060848603121561336457613363612f4f565b5b60006133728682870161315b565b93505060206133838682870161315b565b925050604061339486828701612fd8565b9150509250925092565b6000819050919050565b60006133c36133be6133b984612f59565b61339e565b612f59565b9050919050565b60006133d5826133a8565b9050919050565b60006133e7826133ca565b9050919050565b6133f7816133dc565b82525050565b600060208201905061341260008301846133ee565b92915050565b7f4e487b7100000000000000000000000000000000000000000000000000000000600052602260045260246000fd5b6000600282049050600182168061345f57607f821691505b60208210810361347257613471613418565b5b50919050565b7f596f7520617265206e6f7420707265736964656e740000000000000000000000600082015250565b60006134ae601583612e9f565b91506134b982613478565b602082019050919050565b600060208201905081810360008301526134dd816134a1565b9050919050565b7f596f757220707265736964656e6379206973206f7665722e0000000000000000600082015250565b600061351a601883612e9f565b9150613525826134e4565b602082019050919050565b600060208201905081810360008301526135498161350d565b9050919050565b61355981612f79565b82525050565b60006020820190506135746000830184613550565b92915050565b60008151905061358981612fc1565b92915050565b6000602082840312156135a5576135a4612f4f565b5b60006135b38482850161357a565b91505092915050565b7f4e487b7100000000000000000000000000000000000000000000000000000000600052601160045260246000fd5b60006135f682612fb7565b915061360183612fb7565b925082821015613614576136136135bc565b5b828203905092915050565b7f496e73756666696369656e742062616c616e63652e0000000000000000000000600082015250565b6000613655601583612e9f565b91506136608261361f565b602082019050919050565b6000602082019050818103600083015261368481613648565b9050919050565b600061369682612fb7565b91506136a183612fb7565b9250827fffffffffffffffffffffffffffffffffffffffffffffffffffffffffffffffff038211156136d6576136d56135bc565b5b828201905092915050565b60006040820190506136f66000830185613550565b6137036020830184613090565b9392505050565b6137138161302d565b811461371e57600080fd5b50565b6000815190506137308161370a565b92915050565b60006020828403121561374c5761374b612f4f565b5b600061375a84828501613721565b91505092915050565b7f556e61626c6520746f207472616e736665722e00000000000000000000000000600082015250565b6000613799601383612e9f565b91506137a482613763565b602082019050919050565b600060208201905081810360008301526137c88161378c565b9050919050565b7f5265656e7472616e637947756172643a207265656e7472616e742063616c6c00600082015250565b6000613805601f83612e9f565b9150613810826137cf565b602082019050919050565b60006020820190508181036000830152613834816137f8565b9050919050565b7f596f7527726520616c7265616479207374616b65642e00000000000000000000600082015250565b6000613871601683612e9f565b915061387c8261383b565b602082019050919050565b600060208201905081810360008301526138a081613864565b9050919050565b60006060820190506138bc6000830186613550565b6138c96020830185613550565b6138d66040830184613090565b949350505050565b7f596f7520617265206e6f74206f776e65722e0000000000000000000000000000600082015250565b6000613914601283612e9f565b915061391f826138de565b602082019050919050565b6000602082019050818103600083015261394381613907565b9050919050565b7f54686520676f7665726e6d656e7420776173206e6f7420666f726d65642e0000600082015250565b6000613980601e83612e9f565b915061398b8261394a565b602082019050919050565b600060208201905081810360008301526139af81613973565b9050919050565b7f4e487b7100000000000000000000000000000000000000000000000000000000600052603260045260246000fd5b60006139f082612fb7565b91507fffffffffffffffffffffffffffffffffffffffffffffffffffffffffffffffff8203613a2257613a216135bc565b5b600182019050919050565b7f596f7520617265206e6f7420707265736964656e74206f72206d696e6973746560008201527f722e000000000000000000000000000000000000000000000000000000000000602082015250565b6000613a89602283612e9f565b9150613a9482613a2d565b604082019050919050565b60006020820190508181036000830152613ab881613a7c565b9050919050565b7f596f7520646964206e6f74207374616b652e0000000000000000000000000000600082015250565b6000613af5601283612e9f565b9150613b0082613abf565b602082019050919050565b60006020820190508181036000830152613b2481613ae8565b9050919050565b7f566f74696e6720697320636c6f73652e00000000000000000000000000000000600082015250565b6000613b61601083612e9f565b9150613b6c82613b2b565b602082019050919050565b60006020820190508181036000830152613b9081613b54565b9050919050565b7f596f7520617265206e6f7420617574686f72697a656420746f20766f74652e00600082015250565b6000613bcd601f83612e9f565b9150613bd882613b97565b602082019050919050565b60006020820190508181036000830152613bfc81613bc0565b9050919050565b7f57726f6e672043686f6963652e00000000000000000000000000000000000000600082015250565b6000613c39600d83612e9f565b9150613c4482613c03565b602082019050919050565b60006020820190508181036000830152613c6881613c2c565b9050919050565b600067ffffffffffffffff82169050919050565b6000613c8e82613c6f565b9150613c9983613c6f565b92508267ffffffffffffffff03821115613cb657613cb56135bc565b5b828201905092915050565b7f446f206e6f7420666f756e6420656c656374696f6e0000000000000000000000600082015250565b6000613cf7601583612e9f565b9150613d0282613cc1565b602082019050919050565b60006020820190508181036000830152613d2681613cea565b9050919050565b7f596f752063616e206e6f7420626520707265736964656e742061207365636f6e60008201527f642074696d650000000000000000000000000000000000000000000000000000602082015250565b6000613d89602683612e9f565b9150613d9482613d2d565b604082019050919050565b60006020820190508181036000830152613db881613d7c565b9050919050565b7f596f752061726520646964206e6f74207374616b652e00000000000000000000600082015250565b6000613df5601683612e9f565b9150613e0082613dbf565b602082019050919050565b60006020820190508181036000830152613e2481613de8565b9050919050565b7f566f74696e67206973206e6f74206f766572207965742e000000000000000000600082015250565b6000613e61601783612e9f565b9150613e6c82613e2b565b602082019050919050565b60006020820190508181036000830152613e9081613e54565b9050919050565b7f45524332303a2064656372656173656420616c6c6f77616e63652062656c6f7760008201527f207a65726f000000000000000000000000000000000000000000000000000000602082015250565b6000613ef3602583612e9f565b9150613efe82613e97565b604082019050919050565b60006020820190508181036000830152613f2281613ee6565b9050919050565b7f57726f6e67206e756d626572206f66206d696e6973746572732e000000000000600082015250565b6000613f5f601a83612e9f565b9150613f6a82613f29565b602082019050919050565b60006020820190508181036000830152613f8e81613f52565b9050919050565b7f596f7520646f206e6f742068617665207065726d697373696f6e20746f20616360008201527f6365737320746869732066756e6374696f6e2e00000000000000000000000000602082015250565b6000613ff1603383612e9f565b9150613ffc82613f95565b604082019050919050565b6000602082019050818103600083015261402081613fe4565b9050919050565b6000819050919050565b600061404c61404761404284614027565b61339e565b612fb7565b9050919050565b61405c81614031565b82525050565b60006060820190506140776000830186613550565b6140846020830185613550565b6140916040830184614053565b949350505050565b7f596f752063616e206e6f74000000000000000000000000000000000000000000600082015250565b60006140cf600b83612e9f565b91506140da82614099565b602082019050919050565b600060208201905081810360008301526140fe816140c2565b9050919050565b7f45524332303a20617070726f76652066726f6d20746865207a65726f2061646460008201527f7265737300000000000000000000000000000000000000000000000000000000602082015250565b6000614161602483612e9f565b915061416c82614105565b604082019050919050565b6000602082019050818103600083015261419081614154565b9050919050565b7f45524332303a20617070726f766520746f20746865207a65726f20616464726560008201527f7373000000000000000000000000000000000000000000000000000000000000602082015250565b60006141f3602283612e9f565b91506141fe82614197565b604082019050919050565b60006020820190508181036000830152614222816141e6565b9050919050565b7f45524332303a20696e73756666696369656e7420616c6c6f77616e6365000000600082015250565b600061425f601d83612e9f565b915061426a82614229565b602082019050919050565b6000602082019050818103600083015261428e81614252565b9050919050565b7f45524332303a207472616e736665722066726f6d20746865207a65726f20616460008201527f6472657373000000000000000000000000000000000000000000000000000000602082015250565b60006142f1602583612e9f565b91506142fc82614295565b604082019050919050565b60006020820190508181036000830152614320816142e4565b9050919050565b7f45524332303a207472616e7366657220746f20746865207a65726f206164647260008201527f6573730000000000000000000000000000000000000000000000000000000000602082015250565b6000614383602383612e9f565b915061438e82614327565b604082019050919050565b600060208201905081810360008301526143b281614376565b9050919050565b7f45524332303a207472616e7366657220616d6f756e742065786365656473206260008201527f616c616e63650000000000000000000000000000000000000000000000000000602082015250565b6000614415602683612e9f565b9150614420826143b9565b604082019050919050565b6000602082019050818103600083015261444481614408565b9050919050565b7f45786365656473206d617820737570706c790000000000000000000000000000600082015250565b6000614481601283612e9f565b915061448c8261444b565b602082019050919050565b600060208201905081810360008301526144b081614474565b9050919050565b7f45524332303a206d696e7420746f20746865207a65726f206164647265737300600082015250565b60006144ed601f83612e9f565b91506144f8826144b7565b602082019050919050565b6000602082019050818103600083015261451c816144e0565b9050919050565b7f546865726520697320616c7265616479206120766f7465000000000000000000600082015250565b6000614559601783612e9f565b915061456482614523565b602082019050919050565b600060208201905081810360008301526145888161454c565b9050919050565b7f57726f6e672074696d6520747970652e00000000000000000000000000000000600082015250565b60006145c5601083612e9f565b91506145d08261458f565b602082019050919050565b600060208201905081810360008301526145f4816145b8565b9050919050565b7f596f752063616e206e6f7420737461727420766f74696e672e00000000000000600082015250565b6000614631601983612e9f565b915061463c826145fb565b602082019050919050565b6000602082019050818103600083015261466081614624565b9050919050565b60006146728261310d565b915061467d8361310d565b92508160ff0483118215151615614697576146966135bc565b5b828202905092915050565b600061ffff82169050919050565b60006146bb826146a2565b91506146c6836146a2565b92508161ffff04831182151516156146e1576146e06135bc565b5b828202905092915050565b600063ffffffff82169050919050565b6000614707826146ec565b9150614712836146ec565b92508163ffffffff048311821515161561472f5761472e6135bc565b5b82820290509291505056fea2646970667358221220f99dedfdcf6832c6542f29b27e7966c2d3de82dc3db3d1d889ee36b238ef4d9f64736f6c634300080e0033",
  "immutableReferences": {
    "851": [
      {
        "length": 32,
        "start": 1751
      },
      {
        "length": 32,
        "start": 1920
      },
      {
        "length": 32,
        "start": 2175
      },
      {
        "length": 32,
        "start": 2803
      },
      {
        "length": 32,
        "start": 4081
      },
      {
        "length": 32,
        "start": 4376
      },
      {
        "length": 32,
        "start": 4717
      },
      {
        "length": 32,
        "start": 8281
      },
      {
        "length": 32,
        "start": 8662
      },
      {
        "length": 32,
        "start": 10726
      }
    ]
  },
  "source": "// SPDX-License-Identifier: MIT\n\n\n\npragma solidity ^0.8.0;\n\n\n\ninterface IERC20 {\n    /**\n     * @dev Emitted when `value` tokens are moved from one account (`from`) to\n     * another (`to`).\n     *\n     * Note that `value` may be zero.\n     */\n    event Transfer(address indexed from, address indexed to, uint256 value);\n\n    /**\n     * @dev Emitted when the allowance of a `spender` for an `owner` is set by\n     * a call to {approve}. `value` is the new allowance.\n     */\n    event Approval(address indexed owner, address indexed spender, uint256 value);\n\n    /**\n     * @dev Returns the amount of tokens in existence.\n     */\n    function totalSupply() external view returns (uint256);\n\n    /**\n     * @dev Returns the amount of tokens owned by `account`.\n     */\n    function balanceOf(address account) external view returns (uint256);\n\n    /**\n     * @dev Moves `amount` tokens from the caller's account to `to`.\n     *\n     * Returns a boolean value indicating whether the operation succeeded.\n     *\n     * Emits a {Transfer} event.\n     */\n    function transfer(address to, uint256 amount) external returns (bool);\n\n    /**\n     * @dev Returns the remaining number of tokens that `spender` will be\n     * allowed to spend on behalf of `owner` through {transferFrom}. This is\n     * zero by default.\n     *\n     * This value changes when {approve} or {transferFrom} are called.\n     */\n    function allowance(address owner, address spender) external view returns (uint256);\n\n    /**\n     * @dev Sets `amount` as the allowance of `spender` over the caller's tokens.\n     *\n     * Returns a boolean value indicating whether the operation succeeded.\n     *\n     * IMPORTANT: Beware that changing an allowance with this method brings the risk\n     * that someone may use both the old and the new allowance by unfortunate\n     * transaction ordering. One possible solution to mitigate this race\n     * condition is to first reduce the spender's allowance to 0 and set the\n     * desired value afterwards:\n     * https://github.com/ethereum/EIPs/issues/20#issuecomment-263524729\n     *\n     * Emits an {Approval} event.\n     */\n    function approve(address spender, uint256 amount) external returns (bool);\n\n    /**\n     * @dev Moves `amount` tokens from `from` to `to` using the\n     * allowance mechanism. `amount` is then deducted from the caller's\n     * allowance.\n     *\n     * Returns a boolean value indicating whether the operation succeeded.\n     *\n     * Emits a {Transfer} event.\n     */\n    function transferFrom(\n        address from,\n        address to,\n        uint256 amount\n    ) external returns (bool);\n}\ninterface IERC20Metadata is IERC20 {\n//OPENZEPPELN\n    function name() external view returns (string memory);\n\n    function symbol() external view returns (string memory);\n\n\n    function decimals() external view returns (uint8);\n}\n\n\n\nabstract contract Context {\n//OPENZEPPELN\n       function _msgSender() internal view virtual returns (address) {\n        return msg.sender;\n    }\n\n    function _msgData() internal view virtual returns (bytes calldata) {\n        return msg.data;\n    }\n\n}\n\ncontract ERC20 is Context, IERC20, IERC20Metadata {\n//OPENZEPPELN\n    mapping(address => uint256) private _balances;\n\n    mapping(address => mapping(address => uint256)) private _allowances;\n    uint8 isPause;\n    uint256 private _totalSupply;\n    uint256 private _maxSupply;\n    string private _name;\n    string private _symbol;\n    address internal judge;\n\n    /**\n     * @dev Sets the values for {name} and {symbol}.\n     *\n     * The default value of {decimals} is 18. To select a different value for\n     * {decimals} you should overload it.\n     *\n     * All two of these values are immutable: they can only be set once during\n     * construction.\n     */\n    constructor(string memory name_, string memory symbol_,uint256 maxSupply_) {\n        _name = name_;\n        _symbol = symbol_;\n        judge=_msgSender();\n        isPause=0;\n        _maxSupply=maxSupply_;\n        _totalSupply=0;\n    }\n    modifier pause() {\n        require(isPause==0, \"Unable to transfer.\");\n        _;\n    }\n    modifier maxSupply(uint256 amount){\n        require(_totalSupply<=_maxSupply && amount<= _maxSupply-_totalSupply,\"Exceeds max supply\");\n        _;\n    }\n    /**\n     * @dev Returns the name of the token.\n     */\n    function name() public view virtual override returns (string memory) {\n        return _name;\n    }\n\n    /**\n     * @dev Returns the symbol of the token, usually a shorter version of the\n     * name.\n     */\n    function symbol() public view virtual override returns (string memory) {\n        return _symbol;\n    }\n\n    /**\n     * @dev Returns the number of decimals used to get its user representation.\n     * For example, if `decimals` equals `2`, a balance of `505` tokens should\n     * be displayed to a user as `5.05` (`505 / 10 ** 2`).\n     *\n     * Tokens usually opt for a value of 18, imitating the relationship between\n     * Ether and Wei. This is the value {ERC20} uses, unless this function is\n     * overridden;\n     *\n     * NOTE: This information is only used for _display_ purposes: it in\n     * no way affects any of the arithmetic of the contract, including\n     * {IERC20-balanceOf} and {IERC20-transfer}.\n     */\n    function decimals() public view virtual override returns (uint8) {\n        return 18;\n    }\n\n    /**\n     * @dev See {IERC20-totalSupply}.\n     */\n    function totalSupply() public view virtual override returns (uint256) {\n        return _totalSupply;\n    }\n\n    /**\n     * @dev See {IERC20-balanceOf}.\n     */\n    function balanceOf(address account) public view virtual override returns (uint256) {\n        return _balances[account];\n    }\n\n    /**\n     * @dev See {IERC20-transfer}.\n     *\n     * Requirements:\n     *\n     * - `to` cannot be the zero address.\n     * - the caller must have a balance of at least `amount`.\n     */\n    function transfer(address to, uint256 amount) public virtual override pause returns  (bool) {\n        address owner = _msgSender();\n        _transfer(owner, to, amount);\n        return true;\n    }\n\n    /**\n     * @dev See {IERC20-allowance}.\n     */\n    function allowance(address owner, address spender) public view virtual override returns (uint256) {\n        return _allowances[owner][spender];\n    }\n\n    /**\n     * @dev See {IERC20-approve}.\n     *\n     * NOTE: If `amount` is the maximum `uint256`, the allowance is not updated on\n     * `transferFrom`. This is semantically equivalent to an infinite approval.\n     *\n     * Requirements:\n     *\n     * - `spender` cannot be the zero address.\n     */\n    function approve(address spender, uint256 amount) public virtual override returns (bool) {\n        address owner = _msgSender();\n        _approve(owner, spender, amount);\n        return true;\n    }\n\n    /**\n     * @dev See {IERC20-transferFrom}.\n     *\n     * Emits an {Approval} event indicating the updated allowance. This is not\n     * required by the EIP. See the note at the beginning of {ERC20}.\n     *\n     * NOTE: Does not update the allowance if the current allowance\n     * is the maximum `uint256`.\n     *\n     * Requirements:\n     *\n     * - `from` and `to` cannot be the zero address.\n     * - `from` must have a balance of at least `amount`.\n     * - the caller must have allowance for ``from``'s tokens of at least\n     * `amount`.\n     */\n    function transferFrom(\n        address from,\n        address to,\n        uint256 amount\n    ) public virtual override pause returns (bool) {\n        address spender = _msgSender();\n        _spendAllowance(from, spender, amount);\n        _transfer(from, to, amount);\n        return true;\n    }\n\n    /**\n     * @dev Atomically increases the allowance granted to `spender` by the caller.\n     *\n     * This is an alternative to {approve} that can be used as a mitigation for\n     * problems described in {IERC20-approve}.\n     *\n     * Emits an {Approval} event indicating the updated allowance.\n     *\n     * Requirements:\n     *\n     * - `spender` cannot be the zero address.\n     */\n    function increaseAllowance(address spender, uint256 addedValue) public virtual returns (bool) {\n        address owner = _msgSender();\n        _approve(owner, spender, allowance(owner, spender) + addedValue);\n        return true;\n    }\n\n    /**\n     * @dev Atomically decreases the allowance granted to `spender` by the caller.\n     *\n     * This is an alternative to {approve} that can be used as a mitigation for\n     * problems described in {IERC20-approve}.\n     *\n     * Emits an {Approval} event indicating the updated allowance.\n     *\n     * Requirements:\n     *\n     * - `spender` cannot be the zero address.\n     * - `spender` must have allowance for the caller of at least\n     * `subtractedValue`.\n     */\n    function decreaseAllowance(address spender, uint256 subtractedValue) public virtual returns (bool) {\n        address owner = _msgSender();\n        uint256 currentAllowance = allowance(owner, spender);\n        require(currentAllowance >= subtractedValue, \"ERC20: decreased allowance below zero\");\n        unchecked {\n            _approve(owner, spender, currentAllowance - subtractedValue);\n        }\n\n        return true;\n    }\n\n    /**\n     * @dev Moves `amount` of tokens from `from` to `to`.\n     *\n     * This internal function is equivalent to {transfer}, and can be used to\n     * e.g. implement automatic token fees, slashing mechanisms, etc.\n     *\n     * Emits a {Transfer} event.\n     *\n     * Requirements:\n     *\n     * - `from` cannot be the zero address.\n     * - `to` cannot be the zero address.\n     * - `from` must have a balance of at least `amount`.\n     */\n    function _transfer(\n        address from,\n        address to,\n        uint256 amount\n    ) internal virtual {\n        require(from != address(0), \"ERC20: transfer from the zero address\");\n        require(to != address(0), \"ERC20: transfer to the zero address\");\n\n        _beforeTokenTransfer(from, to, amount);\n\n        uint256 fromBalance = _balances[from];\n        require(fromBalance >= amount, \"ERC20: transfer amount exceeds balance\");\n        unchecked {\n            _balances[from] = fromBalance - amount;\n        }\n        _balances[to] += amount;\n\n        emit Transfer(from, to, amount);\n\n        _afterTokenTransfer(from, to, amount);\n    }\n\n    /** @dev Creates `amount` tokens and assigns them to `account`, increasing\n     * the total supply.\n     *\n     * Emits a {Transfer} event with `from` set to the zero address.\n     *\n     * Requirements:\n     *\n     * - `account` cannot be the zero address.\n     */\n    function _mint(address account, uint256 amount) internal virtual maxSupply(amount){\n        require(account != address(0), \"ERC20: mint to the zero address\");\n\n        _beforeTokenTransfer(address(0), account, amount);\n\n        _totalSupply += amount;\n        _balances[account] += amount;\n        emit Transfer(address(0), account, amount);\n\n        _afterTokenTransfer(address(0), account, amount);\n    }\n\n    /**\n     * @dev Destroys `amount` tokens from `account`, reducing the\n     * total supply.\n     *\n     * Emits a {Transfer} event with `to` set to the zero address.\n     *\n     * Requirements:\n     *\n     * - `account` cannot be the zero address.\n     * - `account` must have at least `amount` tokens.\n     */\n    function _burn(address account, uint256 amount) internal virtual {\n        require(account != address(0), \"ERC20: burn from the zero address\");\n\n        _beforeTokenTransfer(account, address(0), amount);\n\n        uint256 accountBalance = _balances[account];\n        require(accountBalance >= amount, \"ERC20: burn amount exceeds balance\");\n        unchecked {\n            _balances[account] = accountBalance - amount;\n        }\n        _totalSupply -= amount;\n\n        emit Transfer(account, address(0), amount);\n\n        _afterTokenTransfer(account, address(0), amount);\n    }\n\n    /**\n     * @dev Sets `amount` as the allowance of `spender` over the `owner` s tokens.\n     *\n     * This internal function is equivalent to `approve`, and can be used to\n     * e.g. set automatic allowances for certain subsystems, etc.\n     *\n     * Emits an {Approval} event.\n     *\n     * Requirements:\n     *\n     * - `owner` cannot be the zero address.\n     * - `spender` cannot be the zero address.\n     */\n    function _approve(\n        address owner,\n        address spender,\n        uint256 amount\n    ) internal virtual {\n        require(owner != address(0), \"ERC20: approve from the zero address\");\n        require(spender != address(0), \"ERC20: approve to the zero address\");\n\n        _allowances[owner][spender] = amount;\n        emit Approval(owner, spender, amount);\n    }\n\n    /**\n     * @dev Updates `owner` s allowance for `spender` based on spent `amount`.\n     *\n     * Does not update the allowance amount in case of infinite allowance.\n     * Revert if not enough allowance is available.\n     *\n     * Might emit an {Approval} event.\n     */\n    function _spendAllowance(\n        address owner,\n        address spender,\n        uint256 amount\n    ) internal virtual {\n        uint256 currentAllowance = allowance(owner, spender);\n        if (currentAllowance != type(uint256).max) {\n            require(currentAllowance >= amount, \"ERC20: insufficient allowance\");\n            unchecked {\n                _approve(owner, spender, currentAllowance - amount);\n            }\n        }\n    }\n\n    /**\n     * @dev Hook that is called before any transfer of tokens. This includes\n     * minting and burning.\n     *\n     * Calling conditions:\n     *\n     * - when `from` and `to` are both non-zero, `amount` of ``from``'s tokens\n     * will be transferred to `to`.\n     * - when `from` is zero, `amount` tokens will be minted for `to`.\n     * - when `to` is zero, `amount` of ``from``'s tokens will be burned.\n     * - `from` and `to` are never both zero.\n     *\n     * To learn more about hooks, head to xref:ROOT:extending-contracts.adoc#using-hooks[Using Hooks].\n     */\n    function _beforeTokenTransfer(\n        address from,\n        address to,\n        uint256 amount\n    ) internal virtual {}\n\n    /**\n     * @dev Hook that is called after any transfer of tokens. This includes\n     * minting and burning.\n     *\n     * Calling conditions:\n     *\n     * - when `from` and `to` are both non-zero, `amount` of ``from``'s tokens\n     * has been transferred to `to`.\n     * - when `from` is zero, `amount` tokens have been minted for `to`.\n     * - when `to` is zero, `amount` of ``from``'s tokens have been burned.\n     * - `from` and `to` are never both zero.\n     *\n     * To learn more about hooks, head to xref:ROOT:extending-contracts.adoc#using-hooks[Using Hooks].\n     */\n    function _afterTokenTransfer(\n        address from,\n        address to,\n        uint256 amount\n    ) internal virtual {}\n}\n\nabstract contract Staking is ERC20 {\n    uint8 private constant _NOT_ENTERED = 1;\n    uint8 private constant _ENTERED = 2;\n    uint8 private _status;\n    uint8 internal isOpenedVote; //voting controller\n    uint8 internal earlyElection;\n    uint8 internal treasury;\n    uint8 internal typeofVote; //Type0: general voting & parliamentary vote / Type1: presidintial election / Type2: judge vote \n    //unix timestamp values\n    uint8 internal oneMinute=60;\n    uint16 internal oneHour= 3600;\n    uint32 internal oneDay=86400;\n    uint32 internal oneMonth=2592000;\n    uint32 internal oneYear=31536000;\n    //\n    uint64 internal startTime; // voting start time\n    uint64 internal endTime; //voting end time\n    uint64 internal counter; //counter for voting\n    uint256 internal judgeElectionTime;\n    uint256 internal electionTime;\n    uint256 internal _usedFunds;\n    uint256 internal numberofChoices= 1; //number of options in voting\n    uint256 internal amount = 1 ether;\n    address internal owner;\n    address internal president; // President wallet address\n    address internal _president;\n    address[] internal candidateList; \n    address[] internal presidentList;\n    address[] internal _judgecandiates;    \n    address[] internal ministers;\n    mapping (uint256 => uint256) internal _votenumber; // choice => number of votes\n    mapping (uint256 => Voter) internal _votes; // voter id => vote \n    mapping (address => uint256) internal _stakers; \n    struct Voter {\n        bool voted;  \n        uint vote;   \n    }\n    IERC20 public immutable DAOTOKEN = IERC20(address(this));\n\n    constructor() {\n        _status = _NOT_ENTERED;\n    }\n\n    modifier nonReentrant() {\n        // On the first call to nonReentrant, _notEntered will be true\n        require(_status != _ENTERED, \"ReentrancyGuard: reentrant call\");\n\n        // Any calls to nonReentrant after this point will fail\n        _status = _ENTERED;\n\n        _;\n\n        // By storing the original value once again, a refund is triggered (see\n        // https://eips.ethereum.org/EIPS/eip-2200)\n        _status = _NOT_ENTERED;\n    } \n\n    function stake() external nonReentrant{\n        require(_stakers[_msgSender()]==0,\"You're already staked.\");\n        DAOTOKEN.transferFrom(_msgSender(),address(this),amount);\n        _stakers[_msgSender()]= block.timestamp;\n    }\n    function claim() external nonReentrant{\n        require(_stakers[_msgSender()]!=0,\"You did not stake.\");\n        require(block.timestamp-(_stakers[_msgSender()])>=31536000);\n        require(DAOTOKEN.balanceOf(address(this))>=amount,\"Insufficient balance.\");\n        _stakers[_msgSender()]=0;\n        DAOTOKEN.transfer(_msgSender(),amount);\n\n\n    }\n    function isStaked(address staker) public view returns(bool result){\n        result=_stakers[staker]>0;\n    }\n}\n\n\n\n\nabstract contract Ballot is Staking{\n    \n   \n    constructor()\n       \n    {\n        isOpenedVote=0;\n    }\n    modifier votingTime() {\n        require(block.timestamp>=startTime && block.timestamp<=endTime, \"Voting is close.\"); //modifying for voting periods\n        _;\n    }\n\n    modifier isopenedVote() {\n        require(isOpenedVote==0,\"There is already a vote\");\n        _;\n    }\n\n    //function triggering \"startVote\" function for Type0 voting. \n    //Only token holders can use.\n    function startVote(uint8 _time, uint8 _timeType, uint _choiceNumber) external { \n        DAOTOKEN.transferFrom(_msgSender(),address(this),.1 ether);\n        startVoting(_time,_timeType,_choiceNumber,0);\n    }\n    //params:\n    //voteTime(with timeType): Voting time\n    //timeType: 0:minute, 1: hour 2: day, 3: month 4: year\n    //choiceNumber: number of choices \n    //voteType is typeofVote \n    function startVoting(uint8 voteTime, uint8 timeType, uint choiceNumber,uint8 voteType) internal isopenedVote{\n        require(timeType<=4 && timeType>=0,\"Wrong time type.\");\n        require(DAOTOKEN.balanceOf(_msgSender())>=0,\"You can not start voting.\");\n        numberofChoices = choiceNumber;\n        startTime=uint64(block.timestamp);\n        if(timeType==0) endTime= oneMinute*(voteTime)+(startTime);\n        else if(timeType==1) endTime= oneHour*(voteTime)+(startTime);\n        else if(timeType==2) endTime = oneDay*(voteTime)+(startTime);\n        else if(timeType==3) endTime = oneMonth*(voteTime)+(startTime);\n        else endTime = oneYear*(voteTime)+(startTime);\n        if(counter>0){\n        for(uint i=0; i<=counter;i++){\n            delete _votes[i];\n        }\n        for(uint k=0; k<=numberofChoices;k++){\n            delete _votenumber[k];\n        }\n        counter=0;\n        }\n        typeofVote=voteType;\n        isOpenedVote=1;\n    }\n\n\n    //returns voting results\n    function getWinner() public view returns(uint winner,uint votes) {\n        require(block.timestamp>=endTime,\"Voting is not over yet.\");\n        votes = 0;\n        for (uint i = 1; i <=numberofChoices; i++) {\n            if (_votenumber[i] > votes) {\n                votes = _votenumber[i];\n                winner = i;\n            }\n        }\n        \n        \n    }\n\n    function finishVoting() external {\n        require(block.timestamp>=endTime && isOpenedVote==0,\"You can not\");\n        isOpenedVote=0;\n    }\n    \n    function getVote(uint choice) external votingTime{\n        require(DAOTOKEN.balanceOf(_msgSender())>=0,\"You are not authorized to vote.\");\n        require(choice>0 && choice<=numberofChoices,\"Wrong Choice.\");\n        _votes[counter].voted = true;\n        _votes[counter].vote = choice;\n        _votenumber[choice] += 1;\n        counter +=1;\n    }\n\n\n}\n\n\n\n\n\n\nabstract contract Parliament is Ballot{\n    \n    constructor()\n    {\n        _usedFunds= 0;\n        candidateList.push(address(_msgSender()));\n        electionTime= block.timestamp+(oneMonth);\n        earlyElection=0;\n        treasury=0;\n        _president=_msgSender();\n\n    }\n    modifier onlyPresident() {\n        require(_msgSender()==_president,\"You are not president\");\n        require(block.timestamp<=electionTime,\"Your presidency is over.\");\n        _;\n    }\n    modifier onlyParliament() {\n        require(ministers.length>0,\"The government was not formed.\");\n        bool isMinister = false;\n        for(uint i = 0 ; i < ministers.length; i++){\n            if(address(_msgSender())==ministers[i]) isMinister=true;\n        }\n        require(_msgSender()==_president || isMinister,\"You are not president or minister.\");\n        require(block.timestamp<=electionTime,\"Your presidency is over.\");\n        _;\n    }\n\n   function candidate()external {\n        for(uint i =0; i<presidentList.length;i++){\n            if(address(_msgSender())==presidentList[i]){ revert(\"You can not be president a second time\");}}\n        require(isStaked(address(_msgSender())),\"You are did not stake.\");\n        candidateList.push(address(_msgSender()));\n       \n   }\n\n    function electionResult() external {\n        require(typeofVote==1, \"Do not found election\");\n        (uint id, )=getWinner();\n        _president= candidateList[id];\n        presidentList.push(_president);\n        }\n    function useFunds(uint256 amount) external onlyPresident{\n        require(amount<=DAOTOKEN.balanceOf(address(this)));\n        require(amount<=(DAOTOKEN.balanceOf(address(this))-(_usedFunds)),\"Insufficient balance.\");\n        _usedFunds += amount;\n        DAOTOKEN.transfer(_msgSender(), amount);\n\n    }\n    function appointMinister(address[] calldata _ministers) external onlyPresident {\n        require(_ministers.length==4,\"Wrong number of ministers.\");\n        for(uint i = 0 ; i <_ministers.length ; i++){\n            ministers[i]=_ministers[i];\n        }\n    }\n    function startParliamentaryVote(uint8 _time, uint8 _timeType, uint8 _choiceNumber) external onlyParliament {\n        startVoting(_time,_timeType,_choiceNumber,0);\n    }\n}\n\n\n\n\n\n\n\n\n\n\nabstract contract Judge is   Parliament{\n\n    constructor()\n    {\n\n        judgeElectionTime= block.timestamp+(oneMonth);\n        judge=_msgSender();\n\n    }\n    modifier electionPeriod() {\n        uint nextTime= electionTime+(oneMonth);\n        require(block.timestamp>=nextTime || earlyElection==0 || address(_msgSender())== judge, \"Voting is close.\");\n        _;\n    }\n    modifier judgeElectionPeriod() {\n        uint nextTime= electionTime+(oneMonth);\n        require(block.timestamp>=nextTime, \"Voting is close.\");\n        _;\n    }\n    modifier onlyJudge() {\n        require(address(_msgSender())==judge, \"You do not have permission to access this function.\");\n        _;\n    }\n\n   function election(uint8 voteTime, uint8 timeType ) external electionPeriod{\n       if(electionTime<block.timestamp){ earlyElection=1;}\n       uint candiates = candidateList.length;\n       startVoting(voteTime, timeType, candiates,1);\n   }\n    function judgeElection(uint8 voteTime, uint8 timeType ) external judgeElectionPeriod{\n       uint candiates = _judgecandiates.length;\n       startVoting(voteTime, timeType, candiates,2);\n   }\n    function judgeCandidate()external {\n        require(isStaked(address(_msgSender())),\"You are did not stake.\");\n        _judgecandiates.push(address(_msgSender()));\n       } \n   function judgeElectionResult() public {\n        require(typeofVote==2, \"Do not found election\");\n        (uint id,)=getWinner();\n        judge= _judgecandiates[id];\n        }\n    function pauseTransactions()external onlyJudge{\n        if(isPause==0){\n            isPause=1;\n        }\n        else{\n            isPause=0;\n        }\n    }\n}\n\n\n\n\n\ncontract DAO is Judge{\n\n\n\n    constructor() ERC20(\"DAOTOKEN\", \"DAO\",2000000 ether) //Name & symbol\n    {\n        owner= _msgSender();\n    }\n    modifier onlyOwner(){\n        require(_msgSender()==owner,\"You are not owner.\");\n        _;\n    }\n    function mint(address recipient_, uint256 amount_) external onlyOwner {\n        _mint(recipient_, amount_);\n    }\n\n\n}",
  "sourcePath": "/Users/emirhanguven/Desktop/DaoToken/contracts/DaoToken.sol",
  "compiler": {
    "name": "solc",
    "version": "0.8.14+commit.80d49f37.Emscripten.clang"
  },
  "schemaVersion": "3.4.7",
  "updatedAt": "2022-05-31T20:37:24.677Z",
  "devdoc": {
    "kind": "dev",
    "methods": {
      "allowance(address,address)": {
        "details": "See {IERC20-allowance}."
      },
      "approve(address,uint256)": {
        "details": "See {IERC20-approve}. NOTE: If `amount` is the maximum `uint256`, the allowance is not updated on `transferFrom`. This is semantically equivalent to an infinite approval. Requirements: - `spender` cannot be the zero address."
      },
      "balanceOf(address)": {
        "details": "See {IERC20-balanceOf}."
      },
      "decimals()": {
        "details": "Returns the number of decimals used to get its user representation. For example, if `decimals` equals `2`, a balance of `505` tokens should be displayed to a user as `5.05` (`505 / 10 ** 2`). Tokens usually opt for a value of 18, imitating the relationship between Ether and Wei. This is the value {ERC20} uses, unless this function is overridden; NOTE: This information is only used for _display_ purposes: it in no way affects any of the arithmetic of the contract, including {IERC20-balanceOf} and {IERC20-transfer}."
      },
      "decreaseAllowance(address,uint256)": {
        "details": "Atomically decreases the allowance granted to `spender` by the caller. This is an alternative to {approve} that can be used as a mitigation for problems described in {IERC20-approve}. Emits an {Approval} event indicating the updated allowance. Requirements: - `spender` cannot be the zero address. - `spender` must have allowance for the caller of at least `subtractedValue`."
      },
      "increaseAllowance(address,uint256)": {
        "details": "Atomically increases the allowance granted to `spender` by the caller. This is an alternative to {approve} that can be used as a mitigation for problems described in {IERC20-approve}. Emits an {Approval} event indicating the updated allowance. Requirements: - `spender` cannot be the zero address."
      },
      "name()": {
        "details": "Returns the name of the token."
      },
      "symbol()": {
        "details": "Returns the symbol of the token, usually a shorter version of the name."
      },
      "totalSupply()": {
        "details": "See {IERC20-totalSupply}."
      },
      "transfer(address,uint256)": {
        "details": "See {IERC20-transfer}. Requirements: - `to` cannot be the zero address. - the caller must have a balance of at least `amount`."
      },
      "transferFrom(address,address,uint256)": {
        "details": "See {IERC20-transferFrom}. Emits an {Approval} event indicating the updated allowance. This is not required by the EIP. See the note at the beginning of {ERC20}. NOTE: Does not update the allowance if the current allowance is the maximum `uint256`. Requirements: - `from` and `to` cannot be the zero address. - `from` must have a balance of at least `amount`. - the caller must have allowance for ``from``'s tokens of at least `amount`."
      }
    },
    "version": 1
  },
  "userdoc": {
    "kind": "user",
    "methods": {},
    "version": 1
  }
}